:100000000C942A000C943F000C943F000C943F0089
:100010000C943F000C943F000C943F000C943F0064
:100020000C943F000C943F000C943F000C943F0054
:100030000C943F000C943F000C943F000C943F0044
:100040000C943F000C943F000C943F000C943F0034
:100050000C943F0011241FBECFE5D4E0DEBFCDBF1E
:1000600010E0A0E6B0E0E4E5F3E002C005900D92F8
:10007000A437B107D9F70E9442010C94A8010C944F
:100080000000889A8F9A899A8A9A8B9A8C9A8D9A6C
:10009000089580FD929A80FF929892B381FB662723
:1000A00060F970E023E0660F771F2A95E1F7977FEC
:1000B000692B62BB92B382FB442740F950E034E0E5
:1000C000440F551F3A95E1F79F7E492B42BB92B3EF
:1000D00083FB222720F930E045E0220F331F4A95A9
:1000E000E1F7892F8F7D282B22BB0895611102C073
:1000F000909801C0909A97989198919A0E9449007F
:1001000091980895CF93DF93C82FD62F82958F7043
:100110000E9476006D2F8C2F8F700E94760085EDE7
:100120008A95F1F70000DF91CF910895CF93C82F02
:100130008FE39CE90197F1F700C0000060E08C2F8D
:1001400082958F700E9476008FE39CE90197F1F70A
:1001500000C0000060E08C2F8F70CF910C9476006F
:10016000CF93C82F60E082958F700E94760060E088
:100170008C2F8F70CF910C9476009098979AC3989B
:100180009198919A86B3919892E09A95F1F700C070
:1001900083FDF6CFC39A979808952FEF80E792E0FA
:1001A000215080409040E1F700C000000E944100D3
:1001B00083E00E94B0008FE19EE40197F1F700C058
:1001C000000083E00E94B0008FE792E00197F1F712
:1001D00000C0000083E00E94B0008FE792E001972A
:1001E000F1F700C0000082E00E94B0008FE39CE9BC
:1001F0000197F1F700C0000088E20E94B0008FE391
:100200009CE90197F1F700C000008CE00E94B0006B
:100210008FE39CE90197F1F700C0000080E80E949D
:10022000B0008FE39CE90197F1F700C0000008954A
:1002300088329CF4613059F024F461110BC080685D
:1002400009C0623031F0633029F4846D03C0806CE2
:1002500001C0846960E00C94820008950F931F939D
:10026000CF938C01C0E0F801EC0FF11D8081882351
:1002700029F061E00E948200CF5FF5CFCF911F91FE
:100280000F910895CF93DF93CDB7DEB7A5970FB643
:10029000F894DEBF0FBECDBF0E94CD0084E1E0E642
:1002A000F0E09E012F5F3F4F6901D90101900D924F
:1002B0008A95E1F7F90101900020E9F731978F0164
:1002C000021B130B7E0135E1E30EF11C580181E0A6
:1002D000A81AB10847018A0C9B1CB601C7010E94ED
:1002E000A101712C872D90E080179107B4F760E091
:1002F00070E081E090E00E948200EBE7F2E9319744
:10030000F1F700C0000060E070E080E090E00E9443
:100310001801C7010E942E018FE493EC0197F1F7B9
:1003200000C000008D89F7019F012E193F092A1591
:100330003B051CF491819193F7CFF4018083739472
:10034000D1CFFB01DC0101900D920020E1F708956F
:04035000F894FFCF4F
:10035400416B6164656D6961204269616C736B61B5
:040364002020200035
:00000001FF
