:100000000C942A000C9447000C9447000C94470071
:100010000C9447000C9447000C9447000C94470044
:100020000C9447000C9447000C9447000C94470034
:100030000C9447000C9447000C9447000C94470024
:100040000C9447000C9447000C9447000C94470014
:100050000C94470011241FBECFE5D4E0DEBFCDBF16
:1000600010E0A0E6B0E0EAE0F3E102C005900D92F6
:10007000AA3BB107D9F720E0AAEBB0E001C01D927E
:10008000A13FB207E1F70E942F040C9483090C945E
:1000900000000E94E20088E60E94E900823011F42C
:1000A0008E9A969887E00E94090180E00E940901DB
:1000B0000E94060189EF90E00197F1F700C000006F
:1000C0000895CF93DF93C1E0D0E08C2F880F0E947A
:1000D000E900813011F48E9A96980E9406012196CB
:1000E000CF37D10591F7DF91CF910895CF93DF936B
:1000F000D82FC62F80ED0E94E9008D2F0E940901A4
:100100008C2F0E9409010E94060189EF90E001975F
:10011000F1F700C00000DF91CF910895CF93C82F71
:1001200080ED0E94E9008C2F0E9409010E940601C7
:1001300089EF90E00197F1F700C0000081ED0E9487
:10014000E9000E94060180E00E942601E9EFF0E04C
:100150003197F1F700C00000CF910895FF920F93FF
:100160001F93CF93DF93C82FF62E072F142F80ED08
:100170000E94E9008C2F0E94090189EF90E001970D
:10018000F1F700C0000081ED0E94E900CF2DD02FD3
:10019000123030F081E00E94260189931150F8CF8F
:1001A00080E00E94260188830E94060189EF90E08A
:1001B0000197F1F700C00000DF91CF911F910F91DF
:1001C000FF90089588E480B911B886B7846086BF2F
:1001D000089594EA96BF06B607FEFDCF91B1987FC9
:1001E000983071F483B984E886BF06B607FEFDCF68
:1001F00081B1887F883131F0803231F083E0089519
:1002000080E0089581E0089582E0089584E986BF42
:10021000089583B984E886BF06B607FEFDCF81B195
:10022000887F883181F081B1887F883261F081B127
:10023000887F803441F021B1287F81E090E0203236
:1002400021F080E0089581E090E0089520E4829F0D
:10025000C0011124846886BF06B607FEFDCF83B1B6
:100260000895889A8F9A899A8A9A8B9A8C9A8D9AED
:10027000089580FD929A80FF929892B381FB662741
:1002800060F970E023E0660F771F2A95E1F7977F0A
:10029000692B62BB92B382FB442740F950E034E003
:1002A000440F551F3A95E1F79F7E492B42BB92B30D
:1002B00083FB222720F930E045E0220F331F4A95C7
:1002C000E1F7892F8F7D282B22BB0895611102C091
:1002D000909801C0909A97989198919A0E943901AC
:1002E00091980895CF93DF93C82FD62F82958F7062
:1002F0000E9466016D2F8C2F8F700E94660185ED24
:100300008A95F1F70000DF91CF910895CF93C82F20
:100310008FE39CE90197F1F700C0000060E08C2FAB
:1003200082958F700E9466018FE39CE90197F1F737
:1003300000C0000060E08C2F8F70CF910C9466019C
:10034000CF93C82F60E082958F700E94660160E0B5
:100350008C2F8F70CF910C9466019098979AC398C8
:100360009198919A86B3919892E09A95F1F700C08E
:1003700083FDF6CFC39A979808952FEF80E792E018
:10038000215080409040E1F700C000000E94310100
:1003900083E00E94A0018FE19EE40197F1F700C085
:1003A000000083E00E94A0018FE792E00197F1F73F
:1003B00000C0000083E00E94A0018FE792E0019757
:1003C000F1F700C0000082E00E94A0018FE39CE9E9
:1003D0000197F1F700C0000088E20E94A0018FE3BE
:1003E0009CE90197F1F700C000008CE00E94A00199
:1003F0008FE39CE90197F1F700C0000080E80E94BC
:10040000A0018FE39CE90197F1F700C00000089577
:1004100088329CF4613059F024F461110BC080687B
:1004200009C0623031F0633029F4846D03C0806C00
:1004300001C0846960E00C94720108950F931F93CA
:10044000CF938C01C0E0F801EC0FF11D808188236F
:1004500029F061E00E947201CF5FF5CFCF911F912B
:100460000F910895E199FECF9FBB8EBB6DBBE29AC1
:10047000E19A0895E199FECF9FBB8EBBE09A8DB3C0
:1004800008951F93CF93DF93EC01172F0E94320240
:10049000612FCE010196DF91CF911F910C94320212
:1004A0000F931F93CF93DF938C010E943A02C82FC2
:1004B000D0E0C80101960E943A029E01382BC90182
:1004C000DF91CF911F910F910895CF93DF9380E03B
:1004D0000E948E00C82F81E00E948E00D82F82E0FB
:1004E0000E948E00682F7D2F8C2FDF91CF91089571
:1004F00080E487B987E886B9089597B1987F8770B7
:10050000892B87B9369A3699FECF84B195B1089573
:100510000E9465021F928F931F927F931F926F9389
:1005200082E790E09F938F938FEC90E09F938F935F
:100530000E94990661E070E080E090E00E9408026D
:100540008DB79EB70A960FB6F8949EBF0FBE8DBFAB
:100550008FEC90E00C941E020F931F93CF93DF93C8
:10056000CDB7DEB760970FB6F894DEBF0FBECDBF34
:1005700080E00E947D0224EF31E0AC01429FC00187
:10058000439F900D529F900D1124892F869586953B
:100590001F928F9381E890E09F938F938E010F5F5E
:1005A0001F4F1F930F930E94990661E070E080E057
:1005B00090E00E9408028CE890E00E941E0261E038
:1005C00070E080E090E00E940802C8010E941E02D4
:1005D0000F900F900F900F900F900F9060960FB6A6
:1005E000F894DEBF0FBECDBFDF91CF911F910F9169
:1005F00008958F929F92AF92BF92CF92DF92EF9227
:10060000FF920F931F93CF93DF93CDB7DEB7619720
:100610000FB6F894DEBF0FBECDBF8E010F5F1F4F28
:1006200081E1F80111928A95E9F781E00E947D024B
:10063000BC0180E090E00E94970520E030E040EAB5
:1006400050E40E94250620E030EC4FE754E40E947D
:10065000EF044B015C010E9461056B017C01072ED8
:10066000000C880B990B0E9499059B01AC01C501F8
:10067000B4010E94820420E030E048EC52E40E9481
:1006800025060E9461057F936F93DF92CF928DE9DB
:1006900090E09F938F931F930F930E94990661E0C0
:1006A00070E080E090E00E9408028CE890E00E94F8
:1006B0001E0261E070E080E090E00E940802C80144
:1006C0000E941E020FB6F894DEBF0FBECDBF61962A
:1006D0000FB6F894DEBF0FBECDBFDF91CF911F9153
:1006E0000F91FF90EF90DF90CF90BF90AF909F90D1
:1006F0008F9008958091BA0090E0019663E070E0D9
:100700000E945A048093BA00089582E00E947D02FC
:100710008436910550F48091BD0081110BC00E9478
:100720007A0381E08093BD0008958935924010F0EE
:100730001092BD000895CF93DF938091BC008F5F2E
:100740008093BC00883031F560E070E080E090E09C
:100750000E9408028EEB90E00E941E022091BE00D3
:10076000EEEBF0E0A0E6B0E0ED0109900020E9F743
:10077000CE0182569040AF014E5B5040481759075A
:1007800018F481818193F0CFFC01E254FF4F208364
:100790001092BC00DF91CF91089580E090E00E941C
:1007A0005002BC016F5F7F4F80E090E00C944102EB
:1007B00083E00E947D028436910550F48091BB0055
:1007C00081110BC00E94CD0381E08093BB0008958E
:1007D0008935924010F01092BB0008950F931F933B
:1007E000CF93DF93CDB7DEB761970FB6F894DEBF36
:1007F0000FBECDBF80E090E00E9450029F938F9388
:100800008DEA90E09F938F938E010F5F1F4F1F9390
:100810000F930E94990661E070E080E090E00E94F2
:1008200008028CE890E00E941E0261E070E080E027
:1008300090E00E940802C8010E941E020F900F90D3
:100840000F900F900F900F9061960FB6F894DEBF47
:100850000FBECDBFDF91CF911F910F9108958E9A5A
:10086000969A8F98979A0E94610060E670E08EEBEE
:1008700090E00E9492060E9478020E94BD01809141
:10088000BA00823019F40E94F90207C0813019F4CD
:100890000E94AC0202C00E94EE030E9485030E94E7
:1008A000D8030E949B0387EA91E60197F1F700C005
:1008B0000000E5CF97FB072E16F4009407D077FDD4
:1008C00009D00E946E0407FC05D03EF490958195F6
:1008D0009F4F0895709561957F4F0895AA1BBB1B8C
:1008E00051E107C0AA1FBB1FA617B70710F0A61B30
:1008F000B70B881F991F5A95A9F780959095BC0151
:10090000CD0108955058BB27AA270E949A040C9441
:10091000EB050E94DD0538F00E94E40520F039F473
:100920009F3F19F426F40C94DA050EF4E095E7FBEA
:100930000C94D405E92F0E94FC0558F3BA176207FE
:1009400073078407950720F079F4A6F50C941E062A
:100950000EF4E0950B2EBA2FA02D0B01B9019001DA
:100960000C01CA01A0011124FF27591B99F0593F1E
:1009700050F4503E68F11A16F040A22F232F342F66
:100980004427585FF3CF469537952795A795F040B4
:100990005395C9F77EF41F16BA0B620B730B840BC9
:1009A000BAF09150A1F0FF0FBB1F661F771F881F81
:1009B000C2F70EC0BA0F621F731F841F48F48795D9
:1009C00077956795B795F7959E3F08F0B0CF9395CB
:1009D000880F08F09927EE0F9795879508950E9444
:1009E00003050C94EB050E94E40558F00E94DD0518
:1009F00040F029F45F3F29F00C94D40551110C9478
:100A00001F060C94DA050E94FC0568F39923B1F3E4
:100A1000552391F3951B550BBB27AA276217730724
:100A2000840738F09F5F5F4F220F331F441FAA1FB8
:100A3000A9F335D00E2E3AF0E0E832D09150504074
:100A4000E695001CCAF72BD0FE2F29D0660F771F22
:100A5000881FBB1F261737074807AB07B0E809F008
:100A6000BB0B802DBF01FF2793585F4F3AF09E3F8D
:100A7000510578F00C94D4050C941F065F3FE4F305
:100A8000983ED4F3869577956795B795F7959F5FD0
:100A9000C9F7880F911D9695879597F90895E1E01C
:100AA000660F771F881FBB1F621773078407BA077B
:100AB00020F0621B730B840BBA0BEE1F88F7E095D6
:100AC00008950E9468056894B1110C941F0608955A
:100AD0000E94040688F09F5798F0B92F9927B751C4
:100AE000B0F0E1F0660F771F881F991F1AF0BA95D2
:100AF000C9F714C0B13091F00E941E06B1E008950C
:100B00000C941E06672F782F8827B85F39F0B93FFD
:100B1000CCF3869577956795B395D9F73EF4909584
:100B20008095709561957F4F8F4F9F4F0895E89402
:100B300009C097FB3EF490958095709561957F4F25
:100B40008F4F9F4F9923A9F0F92F96E9BB279395D3
:100B5000F695879577956795B795F111F8CFFAF4E3
:100B6000BB0F11F460FF1BC06F5F7F4F8F4F9F4F14
:100B700016C0882311F096E911C0772321F09EE872
:100B8000872F762F05C0662371F096E8862F70E0D8
:100B900060E02AF09A95660F771F881FDAF7880FB2
:100BA0009695879597F9089597F99F6780E870E083
:100BB00060E008959FEF80EC089500240A941616D3
:100BC000170618060906089500240A94121613063B
:100BD000140605060895092E0394000C11F48823C9
:100BE00052F0BB0F40F4BF2B11F460FF04C06F5FE5
:100BF0007F4F8F4F9F4F089557FD9058440F551FBB
:100C000059F05F3F71F04795880F97FB991F61F08E
:100C10009F3F79F087950895121613061406551F05
:100C2000F2CF4695F1DF08C0161617061806991F71
:100C3000F1CF86957105610508940895E894BB2766
:100C400066277727CB0197F908950E9438060C9400
:100C5000EB050E94DD0538F00E94E40520F09523A5
:100C600011F00C94D4050C94DA0511240C941F0691
:100C70000E94FC0570F3959FC1F3950F50E0551F3E
:100C8000629FF001729FBB27F00DB11D639FAA27E1
:100C9000F00DB11DAA1F649F6627B00DA11D661F30
:100CA000829F2227B00DA11D621F739FB00DA11D51
:100CB000621F839FA00D611D221F749F3327A00D0B
:100CC000611D231F849F600D211D822F762F6A2FA7
:100CD00011249F5750409AF0F1F088234AF0EE0F0C
:100CE000FF1FBB1F661F771F881F91505040A9F739
:100CF0009E3F510580F00C94D4050C941F065F3F75
:100D0000E4F3983ED4F3869577956795B795F79574
:100D1000E7959F5FC1F7FE2B880F911D96958795EC
:100D200097F90895FB01DC0101900D920020E1F795
:100D30000895AEE0B0E0EFE9F6E00C945A090D89B1
:100D40001E8986E08C831A8309838FEF9FE79E8339
:100D50008D83AE01475E5F4F6F89788DCE0101961E
:100D60000E94BB06EF81F885E00FF11F10822E96DE
:100D7000E4E00C947609ABE0B0E0E1ECF6E00C9432
:100D80004C096C017B018A01FC0117821682838168
:100D900081FFCCC1CE0101963C01F6019381F701A0
:100DA00093FD859193FF81917F01882309F4BAC156
:100DB000853239F493FD859193FF81917F018532CE
:100DC00029F4B60190E00E94B208E7CF912C212CC3
:100DD000312CFFE1F315D8F08B3279F038F4803202
:100DE00079F08332A1F4232D20611DC08D3261F092
:100DF000803369F4232D216016C0832D8260382E44
:100E0000E32DE4603E2E2AC0F32DF8601DC037FCB0
:100E10002DC020ED280F2A3040F08E32B9F436FC78
:100E200081C1232D2064322E19C036FE06C08AE00F
:100E3000989E200D1124922E11C0EAE02E9E200DC6
:100E40001124222EF32DF0623F2E08C08C3621F49F
:100E5000832D8068382E02C0883641F4F70193FD57
:100E6000859193FF81917F018111B3CF982F9F7D51
:100E70009554933028F40C5F1F4F9FE399830DC066
:100E8000833631F0833771F0833509F059C021C0C2
:100E9000F801808189830E5F1F4F88248394912CF1
:100EA000530113C02801F2E04F0E511CF801A0803D
:100EB000B18036FE03C0692D70E002C06FEF7FEF96
:100EC000C5010E94A7084C018201F32DFF773F2E38
:100ED00016C0280122E0420E511CF801A080B1800A
:100EE00036FE03C0692D70E002C06FEF7FEFC501D1
:100EF0000E949C084C01F32DF0683F2E820133FCC8
:100F00001BC0822D90E088169906B0F4B60180E2ED
:100F100090E00E94B2082A94F4CFF50137FC859145
:100F200037FE81915F01B60190E00E94B208211066
:100F30002A9421E0821A91088114910471F7E8C083
:100F4000843611F0893641F5F80137FE07C060811B
:100F50007181828193810C5F1F4F08C06081718114
:100F6000072E000C880B990B0E5F1F4FF32DFF7699
:100F70003F2E97FF09C090958095709561957F4FA2
:100F80008F4F9F4FF0683F2E2AE030E0A3010E9470
:100F9000EE08882E861845C0853731F4232D2F7E24
:100FA000B22E2AE030E025C0932D997FB92E8F36DE
:100FB000C1F018F4883579F0B5C0803719F088375A
:100FC00021F0B0C0E92FE061BE2EB4FE0DC0FB2DB4
:100FD000F460BF2E09C034FE0AC0292F2660B22E4D
:100FE00006C028E030E005C020E130E002C020E18A
:100FF00032E0F801B7FE07C0608171818281938180
:101000000C5F1F4F06C06081718180E090E00E5F31
:101010001F4FA3010E94EE08882E8618FB2DFF7734
:101020003F2E36FE0DC0232D2E7FA22E891458F49C
:1010300034FE0BC032FC09C0832D8E7EA82E05C065
:10104000B82CA32C03C0B82C01C0B92CA4FE0FC02F
:10105000FE01E80DF11D8081803321F49A2D997EE7
:10106000A92E09C0A2FE06C0B394B39404C08A2D71
:10107000867809F0B394A3FC11C0A0FE06C0B21498
:1010800088F4280C922C9B180EC0B21460F4B601A0
:1010900080E290E00E94B208B394F7CFB21418F443
:1010A0002B1802C0982C212CA4FE10C0B60180E39E
:1010B00090E00E94B208A2FE17C0A1FC03C088E71E
:1010C00090E002C088E590E0B6010CC08A2D8678D9
:1010D00059F0A1FE02C08BE201C080E2A7FC8DE2C4
:1010E000B60190E00E94B208891438F4B60180E39A
:1010F00090E00E94B2089A94F7CF8A94F301E80D29
:10110000F11D8081B60190E00E94B2088110F5CFF8
:10111000222009F442CEB60180E290E00E94B2089B
:101120002A94F6CFF6018681978102C08FEF9FEF58
:101130002B96E2E10C946809FC0105906150704027
:101140000110D8F7809590958E0F9F1F0895FC0190
:101150006150704001900110D8F7809590958E0FE6
:101160009F1F08950F931F93CF93DF93FB0123815C
:1011700021FD03C08FEF9FEF2CC022FF16C04681D8
:101180005781248135814217530744F4A081B181EE
:101190009D012F5F3F4F318320838C9326813781C0
:1011A0002F5F3F4F3783268314C08B01EC01FB0177
:1011B0000084F185E02D0995892BE1F6D80116967A
:1011C0008D919C911797019617969C938E931697E5
:1011D000CE01DF91CF911F910F910895FA01AA27B7
:1011E000283051F1203181F1E8946F936E7F6E5F6A
:1011F0007F4F8F4F9F4FAF4FB1E03ED0B4E03CD018
:10120000670F781F891F9A1FA11D680F791F8A1FFA
:10121000911DA11D6A0F711D811D911DA11D20D061
:1012200009F468943F912AE0269F11243019305D1B
:101230003193DEF6CF010895462F4770405D41930C
:10124000B3E00FD0C9F7F6CF462F4F70405D4A3359
:1012500018F0495D31FD4052419302D0A9F7EACF21
:10126000B4E0A6959795879577956795BA95C9F750
:1012700000976105710508959B01AC010A2E069443
:101280005795479537952795BA95C9F7620F731FFC
:10129000841F951FA01D08952F923F924F925F9239
:1012A0006F927F928F929F92AF92BF92CF92DF9276
:1012B000EF92FF920F931F93CF93DF93CDB7DEB7DB
:1012C000CA1BDB0B0FB6F894DEBF0FBECDBF09946F
:1012D0002A88398848885F846E847D848C849B84C6
:1012E000AA84B984C884DF80EE80FD800C811B81D4
:1012F000AA81B981CE0FD11D0FB6F894DEBF0FBE03
:0A130000CDBFED010895F894FFCF72
:10130A00416B6164656D6961204269616C736B61EF
:10131A002000253032643A253032643A253032646E
:10132A000054656D703A2025642043002020202057
:10133A0020202020202020202020202000566F6CF2
:10134A00743A2025642E25303264205600436C6995
:0A135A00636B65723A2025750000F0
:00000001FF
